:020000040800F2
:10000000B8A40020AD0200086D06000865060008CF
:1000100069060008310600082D07000800000000EE
:10002000000000000000000000000000A106000821
:1000300061060008000000009D060008A5060008F3
:10004000C7020008C7020008C7020008C70200086C
:10005000C7020008C7020008C7020008C70200085C
:10006000C7020008C7020008C7020008C70200084C
:10007000C7020008C7020008C7020008C70200083C
:10008000C7020008C7020008C7020008C70200082C
:10009000C7020008C7020008C7020008C70200081C
:1000A000C7020008C7020008C7020008C70200080C
:1000B000C7020008C702000811070008C7020008AD
:1000C000C7020008C7020008C7020008C7020008EC
:1000D000C7020008C7020008C7020008C7020008DC
:1000E000C7020008C7020008C7020008C7020008CC
:1000F000C7020008C7020008C7020008C7020008BC
:10010000C7020008C7020008C7020008C7020008AB
:10011000C7020008C7020008C7020008C70200089B
:10012000C7020008C702000835060008C702000819
:10013000C7020008C7020008C7020008C70200087B
:10014000C7020008C7020008C7020008C70200086B
:10015000C7020008C702000800000000C70200082C
:10016000C7020008C70200080000000000000000ED
:10017000C7020008C7020008C7020008000000000C
:1001800000000000C7020008C7020008C7020008FC
:10019000C70200080000000000000000000000008E
:1001A000000000000000000000000000C70200087E
:1001B000C702000800000000C7020008000000009D
:1001C000000000000000000000000000000000002F
:1001D0000000000000000000C7020008C70200087D
:1001E000C7020008C7020008C7020008C7020008CB
:1001F000C7020008C7020008C7020008C7020008BB
:10020000C7020008C7020008C702000800F002F891
:1002100000F03CF80AA090E8000C82448344AAF164
:100220000107DA4501D100F031F8AFF2090EBAE862
:100230000F0013F0010F18BFFB1A43F0010318471A
:10024000A0E40100C0E40100103A24BF78C878C1DE
:10025000FAD8520724BF30C830C144BF04680C60CC
:10026000704700000023002400250026103A28BF14
:1002700078C1FBD8520728BF30C148BF0B60704718
:100280001FB519F0F6F91FBD10B510BD00F09EF9AD
:100290001146FFF7F5FF16F02FFE00F0BCF903B48E
:1002A000FFF7F2FF03BC01F0FFFE000009488047A2
:1002B00009480047FEE7FEE7FEE7FEE7FEE7FEE748
:1002C000FEE7FEE7FEE7FEE704480549054A064B60
:1002D00070470000A90600080D020008B880002041
:1002E000B8A40020B8840020B8840020704753EAE6
:1002F000020C00F069802DE9F04B4FF00006002B56
:100300001FBFB3FA83F503FA05F424FA05F65E403D
:1003100012BF1643B2FA82F502FA05F4C5F12005C0
:100320001EBF22FA05FC44EA0C04203556EA044CB0
:100330004FEA144418BF641C4FF000084FF0000946
:10034000904271EB030C39D3002919BFB1FA81F740
:1003500001FA07F6B0FA80F700FA07F6C7F12007AE
:100360001EBF20FA07FC46EA0C062037B6FBF4FC59
:10037000A7EB0507103F07F01F0BCBF120062CFA67
:1003800006F60CFA0BFB44BFB3460026202FA4BF91
:100390005E464FF0000B5BEA060C08BF4FF0010B06
:1003A00019EB0B0948EB0608ABFB027C06FB02CC01
:1003B0000BFB03CCC01B71EB0C01C1E70B460246E3
:1003C00041464846BDE8F08B13B5084318BF4FF0CF
:1003D000FF300146AFF30080BDE81C4070470000CD
:1003E00010B5044603E009F07BF8401C09D014F86E
:1003F000010B05490028F6D1BDE810400A2009F09C
:100400006FB84FF0FF3010BDBC00002040EA010380
:10041000024630B59B0710D14FF0013400E008C20E
:1004200008C91D1B9D4315EAC41FF8D013F0FF0136
:1004300002F8011B0DD01B0AF8E711F8013B002B55
:1004400002F8013B05D011F8013B002B02F8013BFB
:10045000F3D130BD10B5431C02E010F8011B71B19F
:100460008107FAD14FF0013202C88C1A8C4314EA8A
:10047000C211F9D0C01A0A0603D0C01E10BDC01A9E
:1004800010BD0A0401D0801E10BD0902FCD0401E20
:1004900010BD02F0FF0343EA032242EA024200F0E9
:1004A0000AB802F0FF0343EA032242EA024200F0E4
:1004B00024B84FF000020429C0F0128010F0030CA1
:1004C00000F01B80CCF1040CBCF1020F18BF00F847
:1004D000012BA8BF20F8022BA1EB0C0100F00DB8F6
:1004E0005FEAC17C24BF00F8012B00F8012B48BF54
:1004F00000F8012B70474FF0000200B513469446F8
:100500009646203922BFA0E80C50A0E80C50B1F16B
:100510002001BFF4F7AF090728BFA0E80C5048BF7F
:100520000CC05DF804EB890028BF40F8042B08BF1D
:10053000704748BF20F8022B11F0804F18BF00F819
:10054000012B70470000000030B44FF0013C50F820
:10055000042B51F8043BCCFA52F4D51A20D1FCB943
:1005600050F8042B51F8043BCCFA52F4D51A17D1A9
:10057000B4B950F8042B51F8043BCCFA52F4D51A14
:100580000ED16CB950F8042B51F8043BCCFA52F45C
:10059000D51A05D1002CDAD030BC4FF000007047DE
:1005A00029BAB1FA81F111F01801D1F1200084408B
:1005B000F2D1CA40CB4012F0FF0213F0FF0330BC6F
:1005C000D01A70477047704770477047754600F003
:1005D0002BF8AE4605006946534620F007008546D5
:1005E00018B020B5FFF770FEBDE820404FF00006C0
:1005F0004FF000074FF000084FF0000BAC46ACE89E
:10060000C009ACE8C009ACE8C009ACE8C00921F0F9
:1006100007018D46704710B50446AFF300802046B1
:10062000BDE81040FFF73BBE00487047380000208F
:10063000FEE7000080B54FF4007004F035FA46F292
:100640003040C4F20200002104F028FA40F20840D1
:10065000C2F200000068002818BF0CF0A7FA80BDA5
:1006600070470000FEE70000FEE700007047000052
:1006700000F0070080F00703042B28BF04234FF08D
:10068000FF3C03380CFA03F338BF00209943814044
:100690000CFA00F022EA000008437047704700009F
:1006A00070470000704700004EF68850CEF2000000
:1006B000026843F6000142F47002C4F202010260D3
:1006C0000A6842F001020A600A689207FCD58A684B
:1006D00022F003028A6000BF8A6812F00C0FFBD17F
:1006E0000A684FF6FF73CFF6F2631A4043F2020333
:1006F0000A600022C0F203038A604B60C1F8A020A8
:100700004FF41F02CA604FF0006140F8801C704730
:1007100040F61000C4F200000021016048F29C0085
:10072000C2F200000168013101607047FEE700007D
:10073000002848BF704700F01F01012202FA01F1B2
:100740004EF200124009CEF2000242F8201070472B
:100750004EF60C50CEF200000068C0F30220704745
:100760004EF6145300F00F02CEF2000309011A44B2
:1007700000F16043B0F1FF3FC8BF03F56442117060
:10078000704700004EF60C51CEF200010A684FF699
:10079000FF031A4060F30A2242F0806040F0FD70CF
:1007A0000860704770B505680446287800F01AF8AC
:1007B000002804BF002070BD681E0025064600BF4B
:1007C000811C216016F8011F05EB8502807801EB82
:1007D0004201A1F1300500F005F800283046EFD1C4
:1007E000284670BDA0F1300100200A2938BF012041
:1007F0007047000010B540F21010C2F20000442112
:1008000000F06AFE42F61100C0F600000A21002244
:10081000002415F051FE40F21C11C2F200010860E4
:1008200001F098FF40F2A420C2F20000047010BD55
:1008300070B50346B1F90000B2F90040B1F902C049
:10084000B2F90250B1F904E0B2F90460A042B1F982
:100850000610B2F90620C8BF0446AC451C80C8BFCC
:100860006546B6455D80B8BF764691429E80B8BF6A
:100870000A460020B4424FF00001D8BF0121954242
:10088000D8BF01200840DA8070BD00002DE9F04398
:1008900081B00C46B0F90070B1F900108F423DDB19
:1008A000B0F90260B4F902108E4237DBB0F904905F
:1008B000B4F90410894531DCB0F90680B4F90600BA
:1008C00080452BDC15466AB3694620462A46ADF8BA
:1008D0000070ADF8026000F097F8F8B16946204664
:1008E0002A46ADF80090ADF8026000F08DF8A8B18E
:1008F000694620462A46ADF80070ADF8028000F047
:1009000083F858B1694620462A46ADF80090ADF804
:10091000028000F079F801B0BDE8F083002001B05A
:10092000BDE8F083012001B0BDE8F083B0F90020FC
:10093000B1F904309A4213DCB0F90420B1F9003067
:100940009A420DDBB0F90220B1F906309A4207DC79
:10095000B0F90600B1F902108842A4BF0120704727
:10096000002070472DE9F04381B00C46B0F90460D7
:10097000B1F900108E4211DBB0F90670B4F9021023
:100980008F420BDBB0F90080B4F90410884505DC18
:10099000B0F90290B4F90600814503DD012001B0F1
:1009A000BDE8F0831546EAB1694620462A46ADF80F
:1009B0000080ADF8029000F027F898B9694620460B
:1009C0002A46ADF80060ADF8029000F01DF848B975
:1009D000694620462A46ADF80080ADF8027000F066
:1009E00013F818B1002001B0BDE8F0836946204635
:1009F0002A46ADF80060ADF8027000F005F880F00E
:100A0000010001B0BDE8F0832DE9F04F83B0064648
:100A1000B1F90000B6F90070B8420EDBB6F904A0D7
:100A200050450ADCB1F90200B6F902800C46404597
:100A300003DBB6F90690484503DD002003B0BDE8AE
:100A4000F08F1546012A6BDB30460BF0DFFC81B2DC
:100A500000EBD1300FFA80FB4FEA6B00009030467C
:100A60000BF05AFC81B200EBD13000B20099461075
:100A7000B1EB600FB8BF4FEA6B06AE42A8BF2E467F
:100A8000ADF80470374406EB080501A821460022A2
:100A9000ADF80870ADF80680ADF80A50FFF7B4FF66
:100AA00030B1B819ADF80800A819ADF80A0022E075
:100AB000A9EB060B01A821460022ADF806B0ADF85F
:100AC0000A90FFF7A1FF18B1B819ADF808000EE0C1
:100AD000AAEB060701A821460022ADF80470ADF884
:100AE00008A0FFF791FF68B1B81BADF80400ABEBAD
:100AF0000600ADF8060001A8214615F083F803B002
:100B0000BDE8F08F01A821460022ADF80680ADF8BF
:100B10000A50FFF779FF18B1B81BADF80400C3E71E
:100B2000012003B0BDE8F08F70B5B1F90030B2F923
:100B30000040B1F902C0B2F90250B1F904E0B2F9D3
:100B40000460A342B1F90610B2F90620B8BF1C46F2
:100B5000AC450480B8BF6546B6454580C8BF7646FB
:100B600086809142C8BF0A46C28070BD70B582B00F
:100B7000054615F09DFC0446002001900DB1E86883
:100B800001E00CF019F840F2BC250169C2F2000541
:100B90002860084614F04AFF28684069002818BFFA
:100BA00014F044FF2868C06914F040FF2868006A08
:100BB00014F03CFF28680169002900F0858015F0D9
:100BC000C7F817F02DF82868B0F85011E9B13030A7
:100BD0004FF4807111F04EF82868202100F59870CC
:100BE00011F048F828680021A0F85011204615F0AF
:100BF00059FC019028680068436A33B148F29802B2
:100C0000C2F2000201991268984710F02FFE00F01E
:100C1000C7F800F09BF848F27C06C2F2000674693F
:100C2000D4BB10F0B7FD10F051F87F21002204462C
:100C300014F010FE0BF010FD81B22046002214F0DB
:100C400001FE0BF0DDFE81B22046002214F04AFEC8
:100C500020460321002214F02DFE2046032100220D
:100C600014F010FE20460321002214F013FE20464B
:100C70000321002214F016FE20460321002214F066
:100C800029FE2DA1204610F01FFD2046062100223E
:100C9000002311F0E7F87461306815F003FC800858
:100CA0004A2816D848F29800C2F20000006841F2C3
:100CB000893188423DD30198D6E901120844511C7C
:100CC000C6E9010102B070BD0021A0F8501102B0C8
:100CD00070BD15F0EDFB29683060496829B10868DE
:100CE0004FF47A71B1FBF0F000E0642071680546C2
:100CF000002904BF01217160B16829B14FF47A72F3
:100D000073685143B1FBF3F50021C6E90111854237
:100D100088BF0546D6E9031028443061481CF060BE
:100D200015F036FCC0F1640304A120462A4610F0F9
:100D300005FD02B070BD00BF3F00000025752046D4
:100D400050530A257525252043505500B0B540F273
:100D500020150024C2F200052859002818BF10F001
:100D600027FE28191C2110F085FF1C34702C08BFA9
:100D7000B0BDF1E740F2C831C2F20001096804E0F9
:100D80000A7E42F001020A764969002908BF7047CD
:100D90004A688242F4D00A688242F5D1F0E7000046
:100DA0007047000080B540F21C20C2F20000042110
:100DB00000F092FB80BD000080B540F22C20C2F212
:100DC0000000202100F088FB80BD00002DE9F04FDD
:100DD00085B00E9E1D46002B834608BFB6F5807F6A
:100DE0006DD0DDF83C800023019301A8ADF8081018
:100DF000CDF80A30ADF80E20ADF81010ADF8122085
:100E0000294632464346071D00F1080900F10C0A45
:100E100014F04CFE384629463246434614F046FE4E
:100E2000484629463246434614F040FE504629467D
:100E30003246434614F03AFEBDF90420BDF90830AD
:100E4000BDF90C60BDF910409A421F46BDF906106D
:100E5000BDF90A00B8BF1746A6422546B8BF3546B9
:100E6000AF42B8BF3D46AF1E9A42ABF80070C8BF54
:100E70001346A642C8BF3446A342C8BF1C46A21CA4
:100E8000BDF90E30BDF91260ABF804208142024674
:100E9000B8BF0A46B3423746B8BF1F46BA42B8BFCA
:100EA0001746BA1E8142ABF80220C8BF0846B342BB
:100EB000C8BF1E46B042C8BF0646B01C06E00020B0
:100EC000CBF80000481EABF80400501EABF806003B
:100ED00005B0BDE8F08F0000F0B581B016460C46B5
:100EE000074615F0E5FAA2B240F23824C2F2000437
:100EF00005462046394633460FF0C4FC68B1E06928
:100F00000021A16218B9284615F0CCFAE061E06929
:100F1000002804BF0120E06107E020462C2110F0EA
:100F2000A9FE4FF00040A0620024204601B0F0BDB1
:100F300010B540F26420C2F20000142100F0CCFA97
:100F40000FF05AFC002808BF10BD40F2A911C0F6EE
:100F5000010104460FF020FD40F2F151C0F60101FD
:100F600020460FF01BFD40F25971C0F601012046EA
:100F70000FF016FD40F27111C0F6010120460FF08E
:100F800009FD10BDB0B50C4605460846102110F00D
:100F900071FE28680178042908D0022908D00129A7
:100FA00008D1A98A2180E98A618003E00A2100E052
:100FB000E96861604268002A08BFB0BD21469047D9
:100FC000B0BD00002DE9F04784B08046814638F876
:100FD000140F10B9B9F81600A0B3D9F82CA0BAF1C3
:100FE000000F1ED0BAF1000F2FD04FF480760024EE
:100FF000574600BF384613F001F80444384613F052
:1010000061F8C10D50FA81F000B2050A384611F0BE
:101010001BFE074606FB05F024B2002F06B2E9D1FD
:1010200016E0484607F024FC60B18246484609F0C5
:10103000F9FE5046092100220EF026FA99F8010027
:101040008007CFD504B0BDE8F08700244FF4807648
:10105000B6F5807F08BF002C0DD04FF4803090FB98
:10106000F6F000210391A1EB0441091402B203AB95
:10107000404614F01BFD99F84010002001F00F01CC
:10108000ADF80A000329ADF80800504611D111F05F
:10109000BDFE0746504611F04BFEB8F9001002465F
:1010A000032650463B46009606F046FFADF80A0080
:1010B00010E011F025FF0646504611F0D5FDB9F9B4
:1010C000161003460C2750463246009706F034FFB0
:1010D000ADF80800504611F023FEBDF90A100129B1
:1010E00005DB10F0010104BF0021ADF80A108107F3
:1010F00007D4BDF90A10B1F1FF3FDCBF0021ADF804
:101100000A10410706D4BDF908100129A4BF002127
:10111000ADF80810000707D4BDF90800B0F1FF3F93
:10112000DCBF0020ADF808000DF10A0102AA484614
:1011300017F0C2F9BDF90A10BDF90820504600F0B9
:101140006DFA99F8010080073FF57CAFBDF80A0001
:10115000B9F81810B9F81A200844BDF80810A9F811
:1011600018005018A9F81A0004B0BDE8F087000074
:101170002DE9F04782B0C56A002D00F0B680044624
:1011800090F84000000700F0B0800FF059FC814655
:1011900000684021467E284613F0B0F8002804BFBE
:1011A0000020E061284611F09BFE8046284611F0A1
:1011B0009FFE94F84010824601F00F01032925D0CC
:1011C0000C2940F090800027BAF1000FA78340D08F
:1011D000204617F0CBF9ADF806000DF106022046C7
:1011E0000021E78317F068F9BDF906304EF20101DE
:1011F000CFF6FF71284641F6FF7207F049FDBDF8B2
:101200000610084402B22846002120E00027B8F169
:10121000000FE78341D0204617F08AF9ADF80400AB
:1012200001A920460022A78317F046F9BDF9043032
:101230004EF20101CFF6FF71284641F6FF7207F02A
:101240008BFCBDF804100022084401B2284601239B
:1012500047E0B4F91E00C6F16401484348F21F514B
:10126000C5F2EB1150FB01F0410901EBD070E083B6
:10127000284611F0F9FC0646284611F041FEB4F963
:101280001E1002460C2728463346009706F054FEEF
:101290000246E0832846002122E0B4F91C00C6F192
:1012A0006401484348F21F51C5F2EB1150FB01F0B5
:1012B000410901EBD070A083284611F039FD0646A4
:1012C000284611F0A3FDB4F91C1003460327284655
:1012D0003246009706F030FE0146A08328460022E1
:1012E000002313F0CFFFA08B10B102B0BDE8F08750
:1012F000E08B0028F9D1BAF1000F1BD1284611F07C
:10130000FFFD0746284611F0AFFC002FD8BF01288B
:1013100010DBB7F1FF3F07DDB0F1FF3F0ADC4042D1
:1013200002B22846002102E0284600213A46012365
:1013300013F0A8FFB8F1000F1AD1284611F0F8FCFD
:101340000746284611F062FD002FD8BF01280FDBA9
:10135000B7F1FF3F06DDB0F1FF3F09DC404201B2CB
:10136000284601E0284639460022012313F08AFF6F
:1013700028460A214A460EF087F860788007B4D4E0
:1013800094F8400000F0F00084F840000020E06293
:1013900002B0BDE8F0870000F0B585B004460D4608
:1013A00010B134B905B0F0BD0BF006FC0446002CBA
:1013B000F8D020460BF074FC0028F3D094F82800F5
:1013C0004007EFD40020C5B3029020460BF00CFC80
:1013D0000138ADF80C0020460BF04CFC0138ADF89C
:1013E0000E00684602AA2946FFF722FA0028D9D043
:1013F0002068017C890724D482690AB16946904734
:10140000B4F8500190B104F1300500276E4600BFDA
:10141000304629460022FFF739FA0028C2D1B4F835
:1014200050010137874205F10805F1D31F2816D86E
:1014300004EBC0003030694617E0A4F8500105B055
:10144000F0BD0298039920630120A4F85001606860
:1014500061630028A6D015F05FF905B0F0BD00204B
:10146000A4F8500104F1300002A90AF0E9FEB4F832
:101470005011606801310028A4F8501118BF15F010
:101480004BF905B0F0BD0000002814BF40680020F3
:1014900070470000B0B50446FFF7F6FF58B10146AB
:1014A000002500BF2046013500F008F8014600285D
:1014B000F8D12846B0BD0020B0BD00000068084447
:1014C000406870470068085870470000002814BF43
:1014D00080680020704700000331002221F00301E2
:1014E000C0E9001282607047B0B504460068083059
:1014F00010F098F90546A0B120462946002216F0C2
:1015000059F962682046294616F04CF9616819B10C
:1015100020462A4616F04EF9A0686560002808BFEC
:10152000A5602846B0BD0000B0B50446006808308C
:1015300010F078F90546A0B120462946002216F0A1
:1015400031F9A2682046294616F034F9A16819B18C
:1015500020462A4616F026F96068A560002808BFD4
:1015600065602846B0BD000028B1416809B98068AF
:1015700008B10020704701207047000070B50028B6
:1015800008BF70BD04460D46FFF77EFFA8421AD083
:101590002046FFF79BFF064620462946FFF792FFAD
:1015A000AE4206461BD020462946FFF787FF054678
:1015B000204631462A4616F0F5F82046294632469E
:1015C00016F0F8F870BD20462946FFF777FF6060F7
:1015D00068B101462046002216F0ECF870BDA66006
:1015E00046B120463146002216F0DCF870BD0020DE
:1015F000A06070BD0020606070BD000080680028A1
:1016000014BFC08A002000B2704700008068002824
:101610000EBF0020807E80097047000070B50E4626
:1016200011431BD01546044610F02AFCA068012384
:10163000018A428A31440182511941822046314651
:101640002A4613F08FF820460B2100220DF01CFFD4
:10165000012818BF70BD204612F0FEFF012070BDAA
:10166000F0B581B0144690B106460F4612F090F9DD
:1016700078B10546006870B13046394612F08EF9EF
:1016800058B12B680246A1B22846984706E020468A
:1016900004E0204602E0204600E02046C0EA0400C4
:1016A00001B0F0BD2DE9F04F91B00446408CDDF85B
:1016B00068B040F00400608422841646BBF808201D
:1016C00020461F468A4612F08BFB2784BBF8082071
:1016D00005462046514612F083FB618C814621F07D
:1016E00004004D45608406D104BF89EA05005FEA25
:1016F000004000F087802684BBF808202046514631
:1017000012F06EFB804620465146278408F060FAAE
:101710000068BBF80810424614F0EAFDBBF8080068
:101720000B2828D147F6FF76B14518BFB04522D126
:10173000204612F0DDFD81B200EBD13000B2451041
:10174000204611F059FA81B200EBD13000B2B04519
:101750004FEA600005D1691C00F101084145B8BF9E
:10176000884647F6FF71894505D1691C00F10109DA
:101770004945B8BF894640F28020C2F20000FFF719
:10178000B3FE00283ED0C0E9038904600646BBF8DA
:1017900008006C46B0802046C6F808A00AF04EFC4F
:1017A000204631460AF0E4FC49F25D01C0F6010131
:1017B00020460AF09FFC20460AF0BEFC49F2B11117
:1017C000C0F6010120460AF0ADFC20460021FF22B0
:1017D0000AF0C2FCBBF8001020460AF0B5FCBBF8CA
:1017E000021020460AF078FCDBF80C1020460AF0C4
:1017F0008BFC20460AF074FCDBF8100006902046B3
:101800000AF0C8FC11B0BDE8F08F000080B540F2CE
:101810008020C2F200001421FFF75EFE80BD0000B0
:101820002DE9F04F81B00446408C10F4FC7F00F0AD
:101830001C816FEA01096FEA020B4FF0000AE846CB
:1018400000250AE00120002800F01281608C01359B
:10185000C0F3C500854280F00D81E66806EBC50047
:1018600040688101F2D420F07F4014F0ADF810EA16
:10187000090100EA0B00B0FA80F04FEA501018BFDF
:1018800001214140DED156F83560102130464246F4
:1018900014F0D8FA80BB30461121424614F0D2FA37
:1018A00050BB30461221424614F0CCFA20BB3046E1
:1018B0001321424614F0C6FAF0B9304615214246CB
:1018C00014F0C0FAC0B930461421424614F0BAFAF6
:1018D00090B930460A21424614F0B4FA60B9304655
:1018E0006A21424614F0AEFA30B930466B214246C6
:1018F00014F0A8FA002859D00127002F60D13046F3
:101900006821424614F09EFA002849D130466921E8
:10191000424614F097FA002842D130466D214246E3
:1019200014F090FAE0BB30466C21424614F08AFA7B
:10193000B0BB30463721424614F084FA80BB3046B3
:101940003821424614F07EFA50BB304635214246DB
:1019500014F078FA20BB30464021424614F072FA67
:10196000F0B930464521424614F06CFAC0B9304611
:101970004121424614F066FA90B93046422142466F
:1019800014F060FA60B930464321424614F05AFA26
:1019900030B930464921424614F054FA00285BD051
:1019A0004FF0020A002F3FF44DAF0CE0304601210A
:1019B0004246012714F046FA50B100BF002F9ED0D6
:1019C000002F3FF43FAF002000287FF43FAF4FE0EF
:1019D00030460421424614F035FA00287FF48CAFDB
:1019E00030460221424614F02DFA00287FF484AFDD
:1019F00030460321424614F025FA00287FF47CAFDC
:101A000030460521424614F01DFA00287FF474AFD9
:101A100030460621424614F015FA00287FF46CAFD8
:101A200030463221424614F00DFA00287FF464AFAC
:101A300030466D21424614F005FA00287FF45CAF71
:101A400030466C21424614F0FDF90746002818BFC5
:101A50000127002FB4D152E7BAF1000F08BF4FF0B1
:101A6000010A002F3FF4EEAEADE74FF0000A01E0AF
:101A70004FF0030A5FFA8AF001B0BDE8F08F000072
:101A800040F2BC20C2F200000068704780B515F03B
:101A9000B9FE80BDC0F30410072828BF0720704797
:101AA0004FF6FF71884204BF1F207047002804BF13
:101AB000002070476F2805D849F2A271C0F60101D5
:101AC000085C704740F28C21C2F20001096851B1F4
:101AD00040F29022C2F200027038126880B2824254
:101AE00084BF085C704700207047000080B540F25A
:101AF0009820C2F200001821FFF7EEFC012014F03C
:101B000015FD80BD2DE9F04140F20808C2F2000841
:101B10001446D8F800200F4619461D460646904741
:101B2000386040B12868D8F8002030440021904740
:101B30002060BDE8F08100202060BDE8F081000059
:101B40002DE9F04F87B0DDF840900446B9F1000F61
:101B50001F4690468B461CBF0020A9F8000034B3F6
:101B6000BBF1000F4FF0000079D02178002976D02A
:101B7000DDF844A01AF0060F1DD00020012142F22A
:101B8000014200E00130235C0D2BFBD801FA03F782
:101B90001742F7D0002B18BF0130B9F1000F5ED00B
:101BA0004FF6FF71A9F8001007B0BDE8F08F0020D4
:101BB00007B0BDE8F08F0026012F8DF81B60059659
:101BC00034DB207890B32046002100260022B1FAB1
:101BD00081F10492490904AA019203913BB259464A
:101BE00042460DF11B05CDF800A0029514F0CCFE85
:101BF000BDF810100E44C8B1059B227818440A2A7B
:101C0000059013D00D2A11D0225C0D2A0CD00A2A7F
:101C10000AD0781A07B2012F08DB0599605C00280A
:101C200004EB0100D2D101E001300590059880B9A4
:101C300040F20800C2F20000026805A92046904761
:101C4000B9F1000F05D00146584600220DF0BAFD4B
:101C50000646B9F1000F18BFA9F80060059807B053
:101C6000BDE8F08FA0F59C4145F2A61291423CBF21
:101C700001207047202802BF002181F00100704739
:101C80004EF25C6C0122C0F6010C00BFD11FB1FA0C
:101C900081F14FEA511104D01CF802300132834225
:101CA000F4D181F00100704723290AD10378002282
:101CB000022B08D0012B09D0002B04BF0122027097
:101CC00006E0002204E00270012201E0002202701E
:101CD0000378012B06D120291CBF01207047022167
:101CE00001220170104670472DE9F04182B0804614
:101CF0000B46CDE90011002000214246002515F0D9
:101D0000EBF8461C044630460FF08CFD38B1055503
:101D1000019B31464246074615F0DEF83D4628460F
:101D200002B0BDE8F08100002DE9F04702B3DDF814
:101D300020909A4614460F46804606E064F0010063
:101D40003044441C05EB0A0774B1660806FB0A75AB
:101D500040462946C8470128F0DAB0F1FF3F344633
:101D6000F2DD2846BDE8F08700252846BDE8F0876B
:101D70000020BDE8F08700002DE9F04F85B0149CED
:101D80000DF138099246DDE9122599E8C0028B462B
:101D9000A107804635D44DB1E00708D014F00C00FF
:101DA00018BF012040EA09002D1A00E000259742E3
:101DB00019D21F2F17D8F94311444446C7F11F0801
:101DC000F019414538BF884608F101013022994693
:101DD000FEF75FFB129A4B46DDF8409008EB0700D8
:101DE000A046149C471CE0070BD0AF4209D21F2F1E
:101DF00007D8302039460137AF42705438BF202F02
:101E0000F8D3E00629D5119861050CD45FB197424B
:101E100018BFAF4207D1791E0A4618BFBA1E102854
:101E200018BF0A46174610280BD114F0200103D121
:101E3000202F01D2782009E019B1202F01D258209B
:101E400004E0022804D11F2F02D86220F055013788
:101E50001F2F9EBF3020F05501371F2F11D8B9F129
:101E6000000F03D02D20F05501370AE0600705D49C
:101E7000200742BF2020F055013702E02B20F0550B
:101E80000137404659465246CDE900670295039412
:101E900000F0A6F805B0BDE8F08F00002DE9F04F86
:101EA00091B01646DDE91AC21F46DDE91CB3DDF824
:101EB0007C90BCF1000F08BF29F01009BCF1000FA5
:101EC000CDE9076704D119F4806401D000241EE035
:101ED00009F0200484F0610404F1F60800250DF1F6
:101EE000240A00BFBCFBFBF7464607FB1BC404F0FB
:101EF000FE0EBEF10A0F38BF302626446C1CDC45AE
:101F00000AF8056003D31F2D2546BC46EAD309AF66
:101F1000CDE90074CDE9022B0493DDE907231E9F70
:101F2000CDF818900597FFF727FF11B0BDE8F08FA7
:101F30002DE9F04F93B0DDE91C65DDF8908056EA9D
:101F40000507209C08BF28F010080DF11C0C8CE838
:101F50000F0027B918F4806701D0002227E008F0AD
:101F60002000219F80F0610000F1F6094FF0000A87
:101F70000DF12C0B3046294622463B46FEF7B7F9B9
:101F800000FB146202F0FE030A2B4B4638BF3023DD
:101F9000361B13440AF1010275EB07060BF80A30F1
:101FA00005D3BAF11F0F924606460D46E2D30BA8A1
:101FB000CDE900021E9807ABCDE902042298239FC9
:101FC00004900FCBCDF818800597FFF7D5FE13B01E
:101FD000BDE8F08F9A4238BF8854704770470000C0
:101FE0002DE9F04F83B0DDF83C80DDF834A0994650
:101FF00015468B4606465FEA8870144610D10E9847
:102000002C4682450CD20E982A46A0EB0A0700BF48
:10201000202059464B46541CB047013F2246F7D179
:10202000BAF1000F08F002000195029010D00C9850
:10203000A0F1010818F80A00594622464B46AAF1B9
:102040000105671CB047002D3C46AA46F2D100E0CE
:102050002746029888B10199DDF83880781A404502
:102060000DD24D42202059463A464B467C1CB04783
:10207000281940452746F5D302E03C4600E03C469F
:10208000204603B0BDE8F08F024659B10278002A1D
:10209000024607D04942024612F8013F013101D2FF
:1020A000002BF9D1101A7047704700002DE9F04F4E
:1020B00091B08A461A9941F6DD761446C0F60006BC
:1020C0004FF0000B4FF000080E911093BAF1000F83
:1020D00018BF064610990878002800F07882252855
:1020E00009D0F0E0514642462346B0471098A84632
:1020F00001301090EEE7481C4FF00009109004E00A
:10210000481C10900020002822D110990878A0F1D6
:102110002002102A4FF00100F5D8DFE802F00D0C84
:102120000C090C0C0C0C0C0C0C100C130C0C1600E9
:1021300049F01009E4E7E6E749F00809E0E749F06B
:102140000409DDE749F00209DAE749F00109D7E7B8
:10215000109D2F783846FEF745FB18B110A8FEF702
:1021600021FB13E02A2F10D10E9951F8040B0028FF
:102170000E910D9044BF41420D91002805F10100E0
:1021800048BF49F00209109001E000200D90109D19
:1021900028782E2819D1681C10906F7849F480692E
:1021A0003846FEF71FFB20B110A8FEF7FBFA0546E4
:1021B0000CE02A2F09D10E9951F8040B0E9120EA58
:1021C000E071A81C0D46109000E0002510980178E1
:1021D00068394FEA7101092917D8DFE801F00812C0
:1021E0007B1616160516160549F480790BE0411C7E
:1021F00010914178682940F07F8049F0C009023091
:1022000002E049F4007901301090109A1078A0F1A2
:102210002503532B00F257801021DFE813F0A800AC
:10222000540054005400540054005400540054000E
:1022300054005400540054005400540054005400FE
:1022400054005400540054005400540054005400EE
:1022500054005400540054005400540054005400DE
:1022600054005400540054005400540054005400CE
:1022700054005400640054005400540054005400AE
:1022800054005400AD005400540054005400540055
:102290005400540054005400AC003E015700540058
:1022A000540054005400570054005400540054008B
:1022B000540073006400540054007500540057002B
:1022C00054005400AD0008F101050BE729F0100996
:1022D0000A2151E0411C109141786C290FD149F439
:1022E0004079023090E712F8010F49F488795628B6
:1022F00008BF109210213FE049F0800985E749F4BA
:10230000807982E7082137E00E98294650F8047B4F
:10231000002D0E90384608BF4FF0FF31FFF7B4FE96
:1023200009F4806BA842294638BF0146BBF1000F73
:1023300008BF014619F002000C9040F0D7800D98BC
:10234000814280F0EF800A97A946421C471A002577
:102350000B9200BF08EB0502202051462346B047F0
:102360000135AF42F6D10A9FA8444D46DCE008F1A2
:1023700001052520B6E602211098007840F00802F9
:10238000582A08BF49F02009642803D0692818BFDB
:1023900029F00C095FEA495248BF29F00109562883
:1023A00014D0692801D0642822D15FEA89502FD443
:1023B0005FEAC9504ED45FEA496000F185800E980B
:1023C0005FEA0962006848BF00B27FE00E99A4EBA3
:1023D000080251F8040B0E9141680F680AEB0801DE
:1023E0000F97036830460097FFF760FE804495E042
:1023F0005FEA895037D45FEAC95072D45FEA496016
:1024000079D40E9B5FEA0962186848BF80B274E015
:102410000E98073020F007000346426853F8080B77
:10242000CDE9041B10EBE2700E9342EBE2730D99C1
:1024300083EAE27380EAE270CDE90719D70FCDE9AC
:102440000003304651464246234606950297FFF761
:102450006FFD62E00E9A52F8040B0E9202460028BD
:1024600048BF424239E00E98073020F0070003468B
:10247000426853F8080BCDE9041B0D990E93CDE982
:102480000719CDE9000230465146424623460695DB
:10249000CDF808B0FFF74CFD3FE019F0020927D155
:1024A0000D9802286DD300F1010B4542002700BFB3
:1024B00008EB0702202051462346B0470137E819B0
:1024C0000130F5D1B8445EE00E980078024600284D
:1024D00048BF42420E9B04330E93C00FCDE900204B
:1024E0000FE00E9A52F8040B0E9208E00B911BE0DD
:1024F0004FF0010B47E00E9B187804330E93CDE9A3
:10250000000B0D98CDE90215049030465146424625
:102510002346CDF81490FFF7C1FC80461098013097
:102520001090D7E5481C0B903878A0B107F101094D
:102530000BE000BFC0B251464246234608F10107F6
:10254000B04719F8010BB84630B1BBF1000FF1D01C
:102550000DB1013DEEE747460C98A0B30D980B99DD
:10256000814230D2451A4FF0000B00BF2020514667
:102570003A46234607F10108B047013D4746F5D1E9
:10258000CCE74FF0020B0E99424611F8040B23469C
:102590000E91514608F10107B047B9F1000F12D072
:1025A0000D9883450FD2A0EB0B054FF0000B00BF39
:1025B000202051463A46234607F10108B047013D25
:1025C0004746F5D1AAE7B8464FF0000BA6E74246CA
:1025D000002051462346A04528BF621EB047404612
:1025E00011B0BDE8F08F000010B54FF0000448B105
:1025F00000F018F80C28014698BF0C21B0F5804F68
:1026000038BF0C46204610BD20F003007047000084
:102610004A1E114204D1084401384942084070471B
:10262000FEE700004A1E114204D108440138494225
:1026300008407047FEE700002DE9F04F85B0924654
:10264000427A0C4602F0070140F2D43940F22828C1
:10265000022956464FF01301C2F20009C2F20008E7
:1026600008BF26465445C8BFA24601EB4A02D9F826
:102670000070D8F8001040F2D83BC2F2000B22F0F4
:1026800003057A1ADBF800102A448A4204D27968DA
:1026900021F0004179603BE08D42039009D9284642
:1026A0000FF0C0F8002850D00746406840F00040C6
:1026B0002CE0DBF80010CDE901468A421FD948F62C
:1026C0005D044BF24537C0F6000404AEC0F60007C7
:1026D0004FF0FF30049020463146002208F0F6FD0E
:1026E00038463146002208F0F1FDD9F80000D8F84C
:1026F0000010401ADBF8001028448842E8D8D9F8C6
:102700000070DDE90146786820F0004078600398A9
:1027100031B2224601F0F0FC386078680121B0F156
:10272000FF3F61F31E007860A7F80CA0FE8108DD72
:10273000D9F8000000F110012844B960C9F8000080
:1027400004E007F11000B86000E00027384605B04B
:10275000BDE8F08F80B540F2A420C2F20000012154
:10276000017040F21010C2F20000FEF78DFE01462B
:1027700040F21C10C2F20000006811B113F0CCFF4F
:1027800080BD13F0B9FF80BD10B5044690F842003B
:1027900010F0020109D1B4F8402032B14FF6FF73B6
:1027A0009A421CBF013AA4F84020B4F8402012B964
:1027B000C1B9A26BB2B1D4E90E235B42002A2363F4
:1027C00008BF10BD11B9616B4942216380F002005E
:1027D00084F84200206AD4E90A13C4E90A0221629B
:1027E000A36310BD40F21010C2F200002146FEF7B4
:1027F000C5FEFFF7AFFFE16809B1204688472169B0
:1028000009B12046884720460FF0D2F810BD0000DD
:102810002DE9F04740F2EC38C2F20008D8F8000089
:1028200013F040FE40F2A529C2F2000999F8001009
:10283000044681F0010089F8000040F21010C2F255
:102840000000FEF721FE002863D040F2A42740F2EA
:1028500010150646C2F200074FF0000AC2F200054A
:1028600007E000BF28463146FEF728FE064600284E
:102870004FD096F8420099F80010C0F380028A42C7
:1028800087F800A03ED000F0FB0242EA8101020777
:1028900086F842101AD4316B002917DC091915D4B7
:1028A000C00709D1716939B130468847316AB26AC7
:1028B000014410443162B062B16809B130468847C2
:1028C00096F8420040F0080086F84200306B00198C
:1028D000306317D4F16A8842C8BF3163F16930466A
:1028E0008847726A904205D07268014670620AB1E8
:1028F00030689047D6E90B01814203DB3046FFF791
:1029000043FF00BF38780128ACD12846FEF7BCFD54
:10291000ACE713F0CDFDC8F80000BDE8F08700007B
:10292000B0B5044640680D4610B12946FFF7F8FFE0
:102930002268002A08BFB0BD204629469047B0BD96
:102940002DE9F04F97B09246279A1691111F102942
:102950001293119000F2BA81002009900220159084
:1029600000220F92DFE811F0250011001500B201DE
:10297000B201B201B201B201B201B201B201B201BF
:10298000B201B201B201B2011F0001200F90032079
:102990000CE0FFF775F80068008F099001200F9098
:1029A0000220159005E001200F90022015900020D4
:1029B0000990249D012DC0F289811299119A01FB81
:1029C0000AF002EB400001901698DDF8989001386B
:1029D0000B90AAF1010002901598DDE922464843C8
:1029E0000A90DDE920CB4FF000080027CDF840A089
:1029F00009E000BF002009F8080001370FFA87F846
:102A0000A84580F2638108FB04F00CEB202000282D
:102A1000F0D408FB06F10BEB21210A125245E9DA4A
:102A20000029E7D4169B4FEA202E9E45E2DAC4B275
:102A30005FFA81FB6FF0FF0101EB4403802C4FF044
:102A4000010501EB4B014FF0FE0038BFA0EB440342
:102A5000149338BF4FF0FF35BBF1800F38BFA0EBA8
:102A60004B01139112994FF0010902FB01E038BFAD
:102A70004FF0FF39119B159E02FB01FC00FB063352
:102A800009EB020050451CDA169905EB0E0A8A453F
:102A900017DA5AEA000114D4159905FB013A0A998C
:102AA00001FB09320F99D1B12799142968D0062961
:102AB00075D0052940F08C809C7896789AF8025061
:102AC00089E027991888259D142925F8180014D025
:102AD000062917D005290CBF9978FF2118E019881D
:102AE000BAF800A01288DDF89890DDE92365DDE9E9
:102AF00020CBFF2009F80800A2E00198604410F8FC
:102B00000E1005E0099980B2091A18BF4FF0FF3185
:102B10000020DDF840A0802C38BF01200B9BBEFABE
:102B20008EF56D09BEEB0306DDF89890DDF880C0E8
:102B300005EA000518BF01263043854212D0002067
:102B4000BBF1800F38BF0120029EB2FA82F35B090D
:102B5000921B03EA000318BF01221043834204D0F2
:102B6000002008E0C8B2149901E0C8B21399C1F17D
:102B7000FF014843000ADDE92365DDE921B43AE7B6
:102B8000019E06EB0C0101EB0E0C11F80E401299A0
:102B90001CF8055000FB016010F80E601BE018885F
:102BA0000999DDF884B0814208D0108809998142E2
:102BB00004D0BAF800000999814209D1DDF8989053
:102BC000DDE92365DDF880C0002009F8080032E067
:102BD000FF24FF26FF25DDF89890DDF880C0A6428F
:102BE00007D01399C1F58070604301FB0600C0F364
:102BF0000726DDF884B0A54207D01499C1F580708E
:102C0000604301FB0500C0F30725A91900204E0809
:102C1000B0EB510F09F808600BD019881288BAF888
:102C200000A0DDE92365012050B9CDE90CA20E9189
:102C300048E0DDE923650E99DDE90CA20028F4D017
:102C40008CB290B284420E9109D11FFA8AF084426C
:102C500005D12598CDE90CA220F8181032E003998F
:102C60004FF6FF70049B21EA000001191398C2EA95
:102C70000303C2B218460493039109F0F7FD5146CD
:102C800082460598149AC1EA00000699D2B26FF301
:102C90000F012144CDE9050109F0E8FD014607983F
:102CA0000C91C1EA000008997F22CAEA0101CDF81F
:102CB00034A0CDE9070109F0D9FD2599DDF880C0E0
:102CC00021F81800DDF840A0229C96E617B0BDE878
:102CD000F08F00002DE9F04F81B0DDF838C000938F
:102CE000BCF1010F37DBDDF840E0DDE90CB4DDF8C5
:102CF00028A00025002706E0002601370EF8056011
:102D00003DB2654527DA05FB0BF30AEB2328B8F142
:102D1000000FF1D40B9E05FB04F306EB23234FEACF
:102D2000232991454FF00006E7DA002BE5D44FEA5E
:102D300028238B42E1DA009E09FB063303EB4303B1
:102D4000C65A00EB030823460F9C24F8156098F838
:102D500002601C46D1E701B0BDE8F08FB0B50D466A
:102D6000044600F035F800B1FEE7284600F01EF9F1
:102D70006168084404306060204600F035F8204661
:102D8000B0BD000010B50C4600F010F904F11002BF
:102D90000021904228BF0121084610BD0838704725
:102DA000B0B582B0054608460C4600F0FFF801A910
:102DB0006A4614F017FCDDE900322846214608F087
:102DC000E3F802B0B0BD0000406800F001007047B9
:102DD00080B500F0EBF8B0FA80F0400980BD00004B
:102DE000406800F00200704710B5044600F07CF81F
:102DF000046010BD70B582B00D46044600260196F1
:102E0000009669B101A96A46284614F003FC0198AE
:102E1000072807DC01A96A46204615F03FFC064654
:102E200016B90EE0002666B1304600F0BFF8A842A1
:102E300001D200BFFEE7DDE900322046314615F041
:102E4000EFF8304602B070BD10B50446FFF7CCFF76
:102E500000F094F8204600F08BF810BD10B5044641
:102E600000F042F800F090F8204600F099F810BD0C
:102E700070B5064608460C4600F036F850B10546D7
:102E8000FFF7A2FF78B12046FFF7A2FF18B100BFFD
:102E9000FEE700BFFEE73046294600F055F8204621
:102EA0002946FFF75BFF204670BD000070B506465F
:102EB00008460C46FFF794FF98B1204600F03AF818
:102EC00060B10546FFF780FF50B13046294600F05B
:102ED0003BF828462146FFF741FF70BDFEE700BFE3
:102EE000FEE7204670BD0000B0B50446FFF770FF56
:102EF00008B100BFFEE7204600F088F805462046EE
:102F000000F054F8011F284614F07AFCB0BD000010
:102F1000002904BF0020704752B110B50C4600F0E4
:102F200077F82046FFF79AFF204600F06FF810BDB3
:102F3000FEE7000010B50446FFF752FF10B120680D
:102F400010BD00BFFEE70000B0B582B005460846E0
:102F50000C4600F02BF801A96A4614F043FBDDE9AA
:102F600000322846214615F05BF802B0B0BD0000E3
:102F7000416841F00101416070470000416841F043
:102F80000201416070470000416821F00201416088
:102F900070470000426802F003021143416070472D
:102FA000416821F00101416070470000406820F055
:102FB00003007047F0B581B00C46054600F026F8D6
:102FC000211F14F01DFC064600F020F804210746DE
:102FD000FFF71EFB874200D0FEE72846FFF7E6FF1B
:102FE000001B011F3046FFF7D5FF3046FFF7DEFF1D
:102FF0000B2809D928462146FFF7CCFF3046FFF7BA
:1030000023FF304601B0F0BDFEE7000008307047F6
:1030100070B50446084616460D46FFF7D5FEB8B112
:1030200028463146FFF7AEFE002808BF70BD28468F
:103030003146FFF7BFFF06462846FFF7D5FE30466C
:10304000FFF79CFF20463146FFF7AAFE70BD00BF88
:10305000FEE7000070B50446084615460E46FFF729
:10306000B3FE00B1FEE730462946FFF78BFE00288D
:1030700008BF70BD30462946FFF79CFF0546FFF7A5
:1030800083FF20462946FFF7F3FE01462046FFF75F
:1030900087FE70BD2DE9F04F85B00C460021054636
:1030A0000FF0C6FC30B32846214600F0A5FA2846AA
:1030B000214600F06BF8284610F0F8FD81462846BE
:1030C00010F050FE0490284610F052FB06462846A9
:1030D00011F070F80746284610F036FD42F2D17123
:1030E0008F4282460DD1688C012100F4806081EA14
:1030F000902B08E020461C210EF0BCFD05B0BDE879
:10310000F08F4FF0000B701EB0FA80F04FEA5018AD
:1031100028460FF001FD0646284606F0CFFAA168C2
:10312000236927680246CDE90031304659464B46AF
:10313000CDF80C80029706F01DFE208342F2D1707C
:103140004FF0000982454FF0000605D1688C01213F
:1031500000F4007081EA502628460FF0C5FC0746AF
:10316000284606F0AFFAE16863696568CDE9003189
:10317000049B024638463146CDF80C90029506F085
:10318000F9FD608305B0BDE8F08F00002DE9F04F38
:1031900081B08946064606F0FBF9824630460FF0BC
:1031A000BBFC0090504601F0E7F8C9F81000400061
:1031B0000EF078FBD9F81010C9F8000048000EF0A6
:1031C00071FBD9F81010C9F8080000294FD040F25F
:1031D000010B41F69A72C0F2060B4FF0000811E0A5
:1031E000D9F8080021B241F69A7200294FF0000187
:1031F000D8BF0C4620F81840D9F8101008F1010883
:10320000884534D23AF818009042F5D130460FF094
:1032100021FC00284EF20104E2D000254EF2010408
:1032200006E000BF304601350FF014FC8542D7D2CE
:10323000304629460FF0FCFB5946074611F066F868
:103240000028EFD1384606F0ADF90128EAD138461A
:1032500006F0A2F98045E5D1384611F049F821B2CF
:103260008142DFDC384611F043F80446DAE74FF0DC
:103270000008D1B1002041F69B7241F69A7C0027EC
:1032800000240BE0D9F80850634514BF25F810302E
:1032900035F810301F440130814208D03AF910301F
:1032A0009342EFDB23449C1AF5E7002400273046C5
:1032B00010F0FCFCD9F81010009B4A1E02FB1030E5
:1032C000C01B02B2002AD8BF4046E9B183B24FF01A
:1032D000FF37002241F69B764FF0000803E000BF65
:1032E0000132914212D03AF91250B542F8DBAF1BCD
:1032F0000FFA87F808FB03F7B7FBF4F7D9F8085083
:1033000025F812701746EBE74FF0FF37002F0AD46D
:1033100081B2A4EB08025143B1FBF4F1D9F80820C3
:10332000401A22F8170001B0BDE8F08F2DE9F04FE8
:1033300083B00021002204464EF2010A12F000F987
:10334000204610F0FBFA0546204610F023FD4619F2
:10335000204610F095FC0544204610F0B3F93044A7
:1033600028440FFA80FB204602950FF073FB0028DB
:1033700045D00546019630B201264FF00008C0F254
:1033800004064EF20109009010E000BFB7F91A00E0
:10339000B4F916100FFA89F2401A00F101099145AB
:1033A000B8BF914608F1010845452AD0A0683146CA
:1033B000006850F82870384610F0A8FF0028F1D1B6
:1033C000384611F0A7F90028E0D1384610F0A0F9EE
:1033D0000328DBD9384610F005FF0028E2D107F1B9
:1033E00014000FFA89FA08F067FF0099014451456B
:1033F0004EF2010A0199A8BF00EB0109D2E74EF293
:10340000010902991FFA89F049440AB25A45D8BF06
:103410005946504508BF594608B203B0BDE8F08F81
:103420002DE9F04F83B00021002204464EF2010B3B
:1034300012F070F8204610F081FA0546204610F090
:103440007BFC4619204610F049FC4719204610F035
:1034500047F9B91908440FFA80F920460FF0FAFA33
:103460000546204610F068F901284FD1002D01973C
:1034700000F09880029630B201264FF0000AC0F2A8
:1034800004064EF20108009010E000BFB4F91800E5
:10349000B7F914100FFA88F2401A00F101089045AC
:1034A000B8BF90460AF1010A55457DD0A068314663
:1034B000006850F82A70384610F028FF0028F1D133
:1034C000384611F027F90028E0D1384610F020F9ED
:1034D000082806D8012101FA00F040F249110842FB
:1034E000D4D1384610F076FE0028DBD107F1140065
:1034F0000FFA88FB08F054FF0099014459454EF239
:10350000010B0299A8BF00EB0108CBE7002D029642
:103510004DD040F2010A38B20026C0F2040A4EF241
:103520000108019700900EE0B7F91800B4F91410E3
:103530000FFA88F2401A00F101089045B8BF904692
:103540000136B54235D0A0685146006850F8267063
:10355000384610F0DBFE0028F2D1384611F0DAF8D8
:103560000028E1D1384610F0D3F8072805D801210A
:1035700001FA00F010F0930FD6D1384610F032FE69
:103580000028DDD107F114000FFA88FB08F008FFCE
:103590000099014459454EF2010B0199A8BF00EB77
:1035A0000108CDE74EF201080198404403E04EF2D5
:1035B0000108029840441FFA88F1594508BF08469F
:1035C00002B281B24A45D8BF4846594508BF48466D
:1035D00000B203B0BDE8F08F10B5044600680EF0ED
:1035E000D1F960680EF0CEF9A0680EF0CBF9E06872
:1035F0000EF0C8F910BD00002DE9F04F81B08846EB
:10360000064606F0D5FA814600F0B6FEC8F814006A
:1036100040000EF047F9D8F81410C8F8040048002C
:103620000EF040F9D8F81410C8F80C00002950D05A
:1036300040F2010A41F69A72C0F2060A4FF0000BFE
:1036400012E000BFD8F80C0021B241F69A720029AE
:103650004FF00001D8BF0C4620F81B40D8F81410DA
:103660000BF1010B8B4534D239F81B009042F5D198
:1036700030460FF0EFF900284EF20104E2D00025A9
:103680004EF2010406E000BF304601350FF0E2F9CA
:103690008542D7D2304629460FF0CAF9514607462F
:1036A00010F034FE0028EFD1384606F08BFA0128DE
:1036B000EAD1384606F080FA8345E5D138460FF066
:1036C0009BFA21B28142DFDC38460FF095FA0446BE
:1036D000DAE74FF0000BD1B1002041F69B7241F6C2
:1036E0009A7C002500240BE0D8F80C70634514BFC9
:1036F00027F8103037F810301C440130814208D0D0
:1037000039F910309342EFDB2B449D1AF5E7002482
:103710000025304610F026FB824630460FF0E4F9D3
:10372000D8F814104A1E02FB1A00001B02B2002A2D
:10373000D8BF5846E1B183B24FF0FF36002241F6C0
:103740009B744FF0000B02E00132914212D039F924
:103750001270A742F8DB3F1B0FFA87FB0BFB03F746
:10376000B7FBF5F7D8F80C6026F812701646EBE7B1
:103770004FF0FF36002E0AD481B2A5EB0B02514365
:10378000B1FBF5F1D8F80C20401A22F8160001B070
:10379000BDE8F08F10B5044610F040FC98B9204603
:1037A00010F0A0FCB0F5807F0DD1204610F032FA69
:1037B000FF281CBF012010BD204610F067F800282C
:1037C00018BF012010BD022010BD000010B582B04E
:1037D000B1F800C00389B1F802E044899C44ADF817
:1037E00000C004EB0E0CB1F804E0C9887344ADF8D6
:1037F000043021444369ADF806106946ADF802C0B3
:10380000984702B010BD00002DE9F04F8FB09146EF
:1038100008900A91C8780E924CF2E1414CF2ED42C8
:10382000C0F60001C0F6000210F0010008BF0A4611
:103830004CF2F531DDF870B0DDF8688005924CF29D
:103840000132C0F600019A46C0F600020B4608BFDE
:1038500013460993002808BF0A46069205E000BFF8
:103860004FF0000C5FEACC705BD0BBF80200DBF8D5
:103870001010BBF80420A0EB020EA9B1DBE9031283
:10388000002701F10803002108E000BF1E88AEEB0D
:10389000060E0137974203F1140306D21E7AF6078B
:1038A000F4D19E883144F4E70021DBF81020002A8F
:1038B000D6D0002200274FF0000C06E0DBF8100005
:1038C0000137874202F11402CCD2DBF80C601644B7
:1038D000357CEC07F2D10C0422D00CB20FFA8EF337
:1038E00093FBF4F3F468B6F904006343B6F90640B9
:1038F0001BB2A342B8BF1C468442B8BF04469C42D8
:103900001EBF45F0010030744FF0010CDBF80C00D5
:10391000AEEB040E104483890481C91ACEE700BFC0
:10392000FEE7089E30460FF01BFF0A9D002104466B
:10393000ADF836102878BBF90220BBF90830ADF895
:1039400034100DF136010DAF00914146019713F08F
:1039500065FF012C07940BD1E87810F0010007D027
:1039600030460FF0D9F8BDF836100844ADF83600EF
:10397000304649460FF05CF8002800F032810446DA
:103980000E98504500F02D81BDF834000127C0F29B
:1039900006070DF138080490CDF80CA020463946F2
:1039A00010F0B4FC002840F00F81204610F014F80D
:1039B00098B1DBF8100070B1DBF80C000021083082
:1039C00050F8082CA2420DD0DBF8102001319142B2
:1039D00000F11400F4D3002605E0608C20F4C060F0
:1039E000608430E00688E978608CC9074FF4806114
:1039F00020F4C06008BF4FF40071084404F11407BC
:103A0000099960843846884780B286421BD0204698
:103A100010F022FE0DF12C084046394608F022FC39
:103A2000059A31B2384690472046292142460BF08C
:103A30002BFD20460FF008F9222122460BF024FD31
:103A4000204610F009FE687801280FD0022815D111
:103A5000BBF900000699013020F0010604F11400C2
:103A60008847301A00EBD070461008E00699BBF882
:103A7000006004F114008847361A00E00026079819
:103A800001280CD1E87810F0010008D0099904F160
:103A900014008847BDF83610081AADF836002046E5
:103AA00010F038FB8246204610F04CFB8046204642
:103AB00010F01EFC074620460FF09EF80AF4C041A5
:103AC000B1F5005F13D12AF4C041B1F5FA6F0EDCF5
:103AD000B1F57A7FC8BFC1F57A7148F21F527943B8
:103AE000C5F2EB1251FB02F14A1102EBD17A08F454
:103AF000C041B1F5005F13D128F4C041B1F5FA6FB0
:103B00000EDCB1F57A7FC8BFC1F57A71484348F23F
:103B10001F51C5F2EB1150FB01F0411101EBD078C0
:103B2000A1460A9A189D39F8140FBDF83670D2785C
:103B300055443B46281AB9F8021012F0010208BF9A
:103B40003346C5181998002A404408BF3E46401A1B
:103B5000064445EA0600000417D0204610F07CFD1C
:103B6000A08A218B2844A0824819E18A20838819E1
:103B7000618BE08288196083204610F06DFD29B2C8
:103B800032B22046002310F0EDFD0798DDF80CA0BE
:103B90000A9D01280DF1380808D1E87810F00100DD
:103BA00004D01B980499381A401A07E0099948462E
:103BB00088471B993944084404990844089E012702
:103BC000ADF83600C0F20607E8784246C0F380013F
:103BD000304605F0B5FE20B104460E9850457FF4FE
:103BE000DDAE0FB0BDE8F08F2DE9F04F8FB00029AA
:103BF00000F09181044600680D460028218318BF1B
:103C00000DF0D6FE05EB4500062101EB40000DF05E
:103C100009FE00EB450100EB850202310432012D63
:103C2000C4E90000A260E1600BD1B4210170D4E9C5
:103C300002014FF480320A60002101800FB0BDE81C
:103C4000F08F680002940095AC00851CA8000DF070
:103C500029FE834600EB45000EAE049022B20DF122
:103C60003601304600F064F9BDF9380000258010B7
:103C700009903046059500F051F9002800F0C18008
:103C800000200EAF0DF136060DF124080DF11409D8
:103C90000025039022E000BF28B22BF810100499F1
:103CA0000DF1140C21F810409CE80E10DDF808A06E
:103CB0001144194401EB0C020121DAF804300134FB
:103CC0001A54DAF804200D44135C03941B011354B6
:103CD000384600F023F9002800F093804FF0000AE6
:103CE0003846314600F02CF9384600F017F980B11B
:103CF000BDF8380001B2891000F0030048F82A101E
:103D000049F82A000AF1010ABAF1040FE8D14FF08C
:103D1000040A039CBAF1040F73D109990C988142EB
:103D2000BAD00A98814225D10B9B059A9942049BEF
:103D300028B22BF8101023F8104041D1DDE9063CE1
:103D4000DDF808A01A44DAF8043062441A54DAF8AC
:103D500004200139135C1B011354681C00B22BF8BA
:103D600010109DF82010049A22F8104001F10C0266
:103D700045E000BF049B28B2DDF808A02BF8101026
:103D800023F81040DAF804C0DDE9054201390CF8E7
:103D900000400192DAF80420DDF81CC0145CDDF864
:103DA00020E024011454681C00B22BF81010039971
:103DB000039C23F810100199614471440A1D1EE010
:103DC000DDF808A0DDF818C0DAF804406244225497
:103DD000DAF804200139145CDDF81CC02401145405
:103DE000681C00B2DDF820E02BF81010DDE90312AA
:103DF000039C22F810100CEB0E0101F108020221C5
:103E00005BE728B2431EDDF800E040F2D3213BF926
:103E100013700EFB01F2B7EBA22F4FEAA22106D1DD
:103E2000049F37F91330994201D1029C1AE06FF3D5
:103E30009F22B2F5007F02D85243D20B05E0C2F5B3
:103E4000806252430F23A3EBD232049B029C2BF8D7
:103E5000101023F81010616801350A5461680A5C7B
:103E600012010A5428B2022818DBABF104010BEB53
:103E70008E0200BF32F810302FB22BF8173031F815
:103E80001030049E013526F8173063681E1816F8A6
:103E9000026CDE55831E0138002BEBDCD4F80CC01D
:103EA00029B200200129ACF8000031DBA2680BEB3D
:103EB0008E00831D4FF0000E002405E026460EF113
:103EC000010E8E42344623DA0FFA8EF52CF8154097
:103ED0003BF814008C4222F81500EFDA049830F811
:103EE00014601FFA8EF08642E8D100BF32F81560E8
:103EF0003BF91470BE42B8BF3746661C8E4222F8AA
:103F00001570DCDA33F8144084423446EED0D6E73C
:103F100058460DF037FD0FB0BDE8F08FB0F9001036
:103F2000B0F9022000208A42D8BF0120704700006B
:103F3000002302804380C2F1010008807047000026
:103F4000B1F90020B0F802C0002A0ADD0388ACEB0A
:103F5000030302EB430205320A8001884A1E014630
:103F600002E002EB4C0203320A80418801314180B9
:103F700070470000F0B581B0022A4FEA112E39D9FE
:103F8000C1F3C40CC0F3C403634400F00706C0F3DC
:103F900042371F241F2B28BF2346C1F3423547EA6F
:103FA000C6064FEAC30C01F00703354405EBC30313
:103FB000C0F304200EF01F073F2B384428BF3F23D7
:103FC0001F2838BF044604F01F004CEAD30CFF2A18
:103FD00040EA431E0DD05FFA8EF05FFA8CF343EA9D
:103FE000002089B208F010FC014680B24FEA102E82
:103FF00000E06146C8B240EA0E2001B0F0BD00000A
:10400000B0B5022A4FEA112E34D9C0F3C40CC1F363
:10401000C40303FB0CFCF82303EA9C0CC0F3042448
:104020000EF01F0303FB04FEC0F342331C46C1F332
:10403000423560F3C50461F3C50505FB04F0440A8D
:1040400043EAC4036B436FF01F0505EA53034CEAD0
:104050005020FF2A43EA5E1E0BD05FFA8EF340EA3F
:10406000032089B208F0D0FB014680B24FEA102E3F
:1040700000E00146C8B240EA0E20B0BD70B5022A89
:104080004FEA112E34D9C1F3C40CC0F3C40300F0BD
:104090000705C0F34236ACEB0303C1F3423446EAF2
:1040A000C505C0F304200EF01F0623EAE37C01F0EF
:1040B00007032C44301A04EBC30320EAE070C3F377
:1040C000C20400F01F0044EACC0CFF2A40EA431E61
:1040D0000DD05FFA8EF05FFA8CF343EA002089B2CC
:1040E00008F092FB014680B24FEA102E00E06146D4
:1040F000C8B240EA0E2070BD484080EA62007047B6
:1041000010B50446C0E9020010302421FCF7F3F991
:1041100004F13000002100BF20220346013A43F899
:10412000044FFBD10131082900F1800008BF10BD08
:10413000F2E700002DE9F04F85B00F9E0F46311FCA
:10414000102900F2D6800546DDE910B4DDF838808C
:10415000DFE801F0095009CFCFCFCFCFCFCFCFCFFE
:10416000CFCFCFCF850028463E4608F005F9074659
:10417000204639460DF0C4FDB5F902A0284608F0E6
:1041800063F9B5F9061004958A451DDC42464FEAED
:10419000400804985100B0F900000FFA81F91AFBA9
:1041A000020006EB40065D462846314642460DF0C9
:1041B0004DFC04990AF10100B1F906100FFA80FADA
:1041C0004E448A454544EFDD0F98062840F0918023
:1041D000002F00F08E804EF207000021BBF8002077
:1041E0000BF1020B824208BF2170013F04F1010470
:1041F000F4D17EE0284608F027F90646284608F064
:10420000A3F8012875DBB5F90020B5F90230A8EB59
:10421000060113FB082201EB410102EB4202BD182B
:104220000FFA81FC4FEA460EB3B2002707E000BF49
:10423000791C0FB2344465448742F34459DA012EA5
:10424000F6DB033D002100BF6A79625435F8032F85
:104250002BF8112001318B42F6D10335E8E701A894
:104260008CC0284608F070F881462846049508F06E
:10427000EBF8B9F1010F06461BDB04990E9BB1F96F
:104280000000B1F902105A0011FB030003994FEA34
:10429000460A01EB400815B2002700BF58464146C8
:1042A00052460DF0D3FB781C07B2A8444F45D344C7
:1042B000F4DBDDF83880DDE90332DDE90110B9F126
:1042C000010F16DB4843B2F90010B2F9022003EBEC
:1042D000400012FB08114518002700BF2046294660
:1042E00032460DF0B3FB781C07B234444F454544C9
:1042F000F4DB05B0BDE8F08F10B5012014F0B4FC7C
:1043000048F2AC04C2F20004A11C204614F0F6FDF1
:1043100060B340F21A01C2F2000120880988421AF3
:1043200098BF0A1A4FF47A7002FB00F140F22C0297
:10433000638840F21C04C2F20002C2F20004128838
:104340002488B1FBF2F11A1B98BFE21A40F22E0446
:10435000C2F200042488504348F2B003B0FBF4F0EA
:10436000C2F2000301241980588000E000240020DC
:1043700014F07AFC204610BD811E4FF0FF3041F64C
:10438000FF7200BF31F8023F01309342FAD170470B
:1043900043F60801C4F202010A6800F00F0022F09F
:1043A000F00242EA001008607047000043F608017E
:1043B000C4F202010A6800F0070022F4E05242EA67
:1043C000802008607047000043F60801C4F2020133
:1043D0000A6800F0070022F4604242EA40300860B8
:1043E0007047000043F6A401C4F202010A680128E4
:1043F00022F0300208BF30320A607047042888BFBC
:104400007047DFE800F0030C19262F0043F6000088
:10441000C4F20200026861F300020260704743F6D2
:104420000000C4F20200026801F0010122F48032AF
:1044300042EA01410160704743F60000C4F2020005
:10444000026801F0010122F0807242EA016101601C
:10445000704743F60000C4F20200026F61F30002ED
:104460000267704743F60000C4F20200426F61F336
:10447000000242677047000070B543F6040541F240
:1044800000260446C4F20205C0F27A0600F01CF9C8
:1044900002280DD0E0B9D5F89C00400418D5D5F815
:1044A0009C00C00444BF46F60046C0F2DC260FE084
:1044B0002868286829682A6812A3C2F302429A5C15
:1044C000C0F3881001F00F0170435143B0FBF1F6C7
:1044D000266068680DA1C0F30310085C21680FA274
:1044E00021FA00F060606968C1F38221515C20FA12
:1044F00001F1E1606968C1F34231515CC840A060DC
:1045000070BD00BF01020408102000000000000080
:104510000000000001020304060708090000000073
:104520000102030410B50224C0F2300404F11400A7
:10453000012100F055F80C20C0F24400012100F0E8
:104540004FF84FF44010012100F04AF84FF44010AA
:10455000012100F045F84FF44010012100F040F82F
:104560002046012100F03CF84FF44010012100F0FA
:1045700037F84FF44010012100F032F84FF44010AA
:10458000012100F02DF84FF44010012100F028F82F
:104590004FF44010012100F023F810BD43F6000253
:1045A000010CC4F20202895800F01F0021FA00F049
:1045B00000F001007047000010B500241120FFF743
:1045C000EDFF210B022903D8012804F10104F5D1E4
:1045D0001120FFF7E3FF0138B0FA80F0400910BD69
:1045E00043F6000200F01F034FF0010CC4F2020278
:1045F00001290CFA03F14FEA1040835814BF23EA53
:10460000010119438150704710B543F6040CC4F200
:10461000020C28B9DCF89CE04EF4805ECCF89CE0FB
:10462000DCF800E000F001042EF4800040EA845041
:10463000CCF80000DCF8000061F38E10CCF800002C
:10464000DCF8000003F0070162F30300CCF800007F
:10465000DCF8000020F4E02040EA0140CCF8000043
:1046600010BD000043F60000C4F20200016841F0F2
:104670000101016001688907FCD5816821F003010F
:10468000816000BF816811F00C0FFBD101684FF60B
:10469000FF72CFF6F262114043F202020160002184
:1046A000C0F2030281604260C0F8A0104FF41F0105
:1046B000C160704743F60801C4F202010A6860F362
:1046C00001020A607047000043F60800C4F20200CD
:1046D0000068C0F3810070472DE9F04F8BB00E46A3
:1046E000C97A032903D201200BB0BDE8F08F174629
:1046F0003269318983461846FCF7EEFB50B1044617
:10470000007D00F01F0528460BF028FD30B14FF06A
:10471000060918E000200BB0BDE8F08F0E2D04D084
:10472000142D07D14FF014090DE04FF00E090120B0
:1047300058B914E028460BF005FD4FF00409002895
:1047400018BF4FF00509002048B1308818B97088AB
:10475000B0F5807F03D000204FF00509A061226AE8
:1047600052B15846394614F075F9204601F01AFB4B
:1047700001200BB0BDE8F08FA06900284FD009A838
:10478000394607F063FD35881DB97088B0F5807F24
:1047900028D0384607F016FE8046384607F09EFDC2
:1047A0000246708806F1040C00902BB209A841461D
:1047B000CDF804C0FCF70AFB3888BDF824107A88CD
:1047C000BDF826300144ADF824109918BDF8283002
:1047D000ADF82610BDF82A101844ADF82800881846
:1047E000ADF82A00DBF8081007AD09AA2846FCF747
:1047F0001FF8804600283ED0DBF808A0CBF8085010
:10480000A369584631463A46CDF8009008F090FA30
:10481000CBF808A0B8F1000F3FF465AFA5E7DBF8CF
:10482000081009A83A46FCF703F860B309A807F096
:10483000C9FD049000EB40000DF034F807ADDBF843
:1048400008A08046284609A907F000FD2846012156
:1048500007F046FEBDF92600BDF92A1088421BDD8F
:104860004046CBF808A00DF08DF80021002000296B
:104870007FF47FAF79E7204601F094FAB8F1000F9A
:104880003FF431AF71E7204601F08CFA012101209D
:1048900000297FF46EAF68E7BDF824103A887B8862
:1048A000891AC51A471E08B2039004E0BDF92A0010
:1048B00001378742D4DA05A8514607AAFBF7B8FFAB
:1048C00018B3DDE903132AB22046CDF800800CF0BE
:1048D0004DF801281DD105A8CBF8080058463146EF
:1048E00007AA4346CDF8009008F022FABDF81E0052
:1048F000BDF822100130ADF81E00481C0135002122
:10490000ADF82200062912D1D0E7062106290ED1E2
:10491000CCE720460BF05EFF40460DF033F8204612
:1049200001F040FACBF808A001210629BED00029E9
:10493000BCD09BE780B5042014F04CFA40F228006C
:10494000C2F2000000684DF68361C4F21B31A0FB87
:104950000101880C40F2D031C2F200010860086801
:104960004FF47A71484340F2CC31C2F20001086042
:1049700080BD000080B5002808BF80BD4EF2100148
:1049800040F2CC3ECEF20001C2F2000E4FF0320CEB
:10499000002300BF82B2332A06D3DEF8002032386B
:1049A00002FB0CF24A6004E0DEF80000504348606D
:1049B00000208B600A6842F001020A600A6802F077
:1049C0000112012AFAD00A6822F001020A600204E8
:1049D0008B60DFD180BD0000F0B581B0154640F29C
:1049E0000842C2F20002106040F61800C4F2020051
:1049F00080220260B1F90000B1F90420B1F902404F
:104A0000B1F90630111A4E1C191B4F1C214606F035
:104A100023FF46F23040C4F20200016821F0010198
:104A2000016006FB07F14900C5604160016841F083
:104A30000101016001B0F0BD10B586B01620C0F2D2
:104A400030000121FFF7CCFD46F23044C4F20204ED
:104A5000204600F085F84FF6FE70C0F20010CDF849
:104A60000E001020ADF80C0043F20C00C4F201005F
:104A7000CDE901004FF00070CDF8120001A92046E9
:104A800000F020F83A200121002212F0A3FE204677
:104A90000221012200F05CF806B010BD026861F34B
:104AA000000202607047000046F20441B0F1805FEE
:104AB000C4F2020192BF086020F07040C1F8000209
:104AC0007047000002684BF6EF731A4002600A89D3
:104AD00003681A4302604A7C036802F0030223F46D
:104AE000405343EA02320260CA7B036802F00302C9
:104AF00023F4406343EA822202608A7B036802F067
:104B0000030223F4407343EA022202604A7B0368F3
:104B100002F0010223F0800343EAC21202600A7B22
:104B2000036862F3861303600A7C036862F345132B
:104B30000360B1F80AC043684FF6FF7223EA02022D
:104B4000624442600A6882604968C1607047000040
:104B5000002A02680CBF22EA01011143016070477C
:104B6000016821F001010160002101604160816064
:104B7000C16040F2FF6100EA010246F20441B2F571
:104B8000C16FC4F2020105D3D208D02A88BF704792
:104B900001F500716FF0070252FA80F04CF6CD4239
:104BA000CCF6CC42A0FB02026FF0030000EA9200B8
:104BB0000F220B6802FA00F01843086070470000EB
:104BC000D0F8002161F30002C0F800217047000016
:104BD000026861F306020260704700002DE9F04FA1
:104BE0009BB00E46C9780329C0F0ED81814619A813
:104BF000114607F055FBB6F92000022823DB96F892
:104C00002200FD281FD33088E8B196F82300BDF8B4
:104C10006410C0F3C0021144ADF86410BDF8661012
:104C2000C0F380021144ADF86610BDF86810C0F3FF
:104C30000012891AADF86810BDF86A10C0F3400080
:104C4000081AADF86A00D9F8082017A819A9FBF7C7
:104C5000EFFD002800F0B781F07B062110F007007F
:104C600008BF0421775A71890DF164087C1A18BFB6
:104C70000446404608F020FEB17800250028CDE922
:104C80001555CDE91355CDE9115510958DF85910ED
:104C90000490ADF8487008BF5FEA046000F05A81E4
:104CA000B01D0590F0780394FC2888BF4FF0FF30CA
:104CB00019AF0290384607F0D9FB8346384607F013
:104CC00049FBB6F900A080468345B8BF5846BAEB09
:104CD000600FA8BF4FEA600A17A807F0C7FB0021C2
:104CE000BAF1010FB8BF0121049C0746E2430A4212
:104CF00010D138460CF0D6FD0AAE05460FFA8AF2FE
:104D000019A93046002309F0A3F83046002108F025
:104D100099FB01E04FF6FF70BDF86010BDF85C2014
:104D2000ADF8241008A90190059810911591FF2164
:104D3000ADF820208DF858105946424613950AF0D8
:104D4000A9FF03995FFA81FBBBF1020F0AD148B1B9
:104D50008368BDF95C10BDF9642003EB4101A1EB50
:104D6000420111910590CCB3BDF95E40BDF96200DE
:104D7000844200F3138102980DF14008C6B20AE0A4
:104D80004846414609F048FBBDF96200844204F1FF
:104D9000010480F20381284631463A46ADF82240AC
:104DA000ADF826400CF020FFBDF95C1022B2284679
:104DB0003B4608F039FD012808BF0220BBF1010F76
:104DC0008DF85000DCD10598BDF966108068A0EB25
:104DD000410030F81400ADF84800D1E7BAF1010FF6
:104DE0005DDB02984FF00008C0B2049008E000BFFD
:104DF000484610A909F010FB08F10108C2454ED041
:104E0000BDF86600BDF95E10404404B2BDF86A000A
:104E10008C42A0EB080006B203DABDF962008642BC
:104E2000EADC049928463A460CF0DEFEBDF9201073
:104E3000284622463B4608F0F7FCBDF95E100128E3
:104E400008BF02208C428DF8500013DBBBF1010F2C
:104E5000ADF82240ADF8264008D10599BDF96600AD
:104E60008968201A31F81000ADF84800484610A9AA
:104E700009F0D2FABDF962008642BDDCBBF1010F38
:104E8000ADF82260ADF82660B2D10599BDF9660093
:104E90008968301A31F81000ADF84800A8E7BDF86D
:104EA0006400BDF86610ADF81800BDF86800ADF8F4
:104EB0001C0001EB0A00BDF86A10ADF81A00A1EB66
:104EC0000A00ADF81E0006A808F0F6FC0399064695
:104ED000090608BF002E4DD00298BDF966108DF866
:104EE0005800BDF96A00A0EB0A048A440120A245DB
:104EF0008DF8500052DC02985FFA80F808E000BF9D
:104F0000484610A909F088FAA2450AF1010A45DAD3
:104F100076B1284641463A460CF066FEBDF95C1073
:104F20000FFA8AF228463B4608F07EFC8DF85000C6
:104F3000BBF1010FADF822A0ADF826A0E0D1059895
:104F4000BDF966108068A0EB410030F81A00ADF89A
:104F50004800D5E7308800287FF4A2AEF07810A989
:104F60008DF858004846CDF8408009F055FA1BB03E
:104F7000BDE8F08FBDF86600BDF86A105044ADF88A
:104F80002200A1EB0A00ADF82600029810A98DF8C6
:104F9000580000201390484609F03EFA15B1284603
:104FA0000CF0F0FC019A4FF6FF7190B2059C88421C
:104FB00005D010B208F0F4FF0AA808F05FFC14B1A5
:104FC00020460AF05FFE1BB0BDE8F08F2DE9F04FE0
:104FD00091B08A460969002900F0218180469AF83B
:104FE0001A000328C0F01B811646D8F808200FAC21
:104FF00020463146FBF71CFC002800F01081D8F851
:105000000890C8F80840DAF810000BF0CBFC022832
:105010004FD1DAE90412002741F6FF70CDE90070A4
:105020000EA80023029711F093FD3488304607F054
:105030001DFA81B200EBD130BDF8381000B201EB9F
:10504000D13204EB600012B2A0EB6200ADF8300088
:10505000084401387488ADF83400304607F07AF916
:1050600081B200EBD130BDF83A1000B201EBD13281
:1050700004EB600012B2A0EB6200ADF8320008440D
:10508000013804ACADF83600204608F03DF9DAE905
:1050900004309AF81A100490BAF818008DF82A1003
:1050A000ADF81C000CAA40462146009707F062FEAE
:1050B000B3E0DAF810000EAC21460BF0ADFB01288E
:1050C00040F0AB8004A807F041FE9DF81C009AF860
:1050D00002109AF81C7001F00F0100F0F0009AF82D
:1050E0001A209AF81B300844BAF81810002F8DF8CF
:1050F0001C00ADF818108DF81A308DF81B2055D013
:105100009DF83B20BDF83930B6F90200B6F906101B
:1051100043EA024200EB5232013A8842ADF83200D3
:10512000ADF8362079DC651C04AF0CAC15E000BF8F
:10513000A8782988BDF8322041EA004002EB5031BE
:10514000BDF83620ADF8321002EB5030B6F906202B
:1051500009B29142ADF836005FDC2A88B6F900004A
:10516000B6F90410C2F38A020244013A8842ADF84B
:105170003000ADF83420DBDCDAF810304046394638
:10518000224607F09FFD2888BDF83010BDF8342076
:10519000C0F38A0001441044B6F90420ADF8301081
:1051A00009B29142ADF83400E6DDC1E734883046FB
:1051B00007F05CF981B200EBD1309DF83B10BDF8EF
:1051C000392000B204EB600042EA0144A5B2C5F305
:1051D000C901471AB6F802B03046ADF8307007F092
:1051E000B9F881B200EBD13000B2ABEB943101EBF6
:1051F0006000C5F38A01ADF83200394400EB543049
:1052000001390138DAF81030ADF83410ADF8360055
:1052100004A90CAA404607F055FDC8F8089011B043
:10522000BDE8F08F2DE9F04387B00E4691F82210CB
:10523000032961D38146308C00285DD096F8230085
:1052400010F03E0F58D010F0010055D11046144612
:1052500007F00CF90546204607F07CF8B6F9007017
:105260008542B8BF28460DF11408B7EB600FC8BFE0
:1052700047104046214607F013F896F82310358C66
:105280000B07BDF8140007EB05032A4696F802C089
:1052900096F822E0C3F1000358BF1A461044ADF857
:1052A0001400C8062846BDF8182058BF1846101A22
:1052B000ADF8180048072846BDF8162058BF184614
:1052C0001044ADF816008807BDF81A0048BF2B46F9
:1052D000C01AADF81A00781B01B20029F18BD8BFB3
:1052E000002000B28DE803404846214642463B4636
:1052F000CDF80CC000F004F807B0BDE8F083000062
:105300002DE9F04FA9B0349CDDE932A50F90084695
:105310009B461646884608F0CFFA5AEA0B01074624
:1053200008BF002F25D00F984146826827A8FBF7B9
:105330007FFA002800F0828227A807F097F8054638
:1053400020A81C210CF096FC28460E950CF0AAFA19
:10535000BBF1010F239016DB0DF168094846414669
:105360005A46002308F074FD4846002108F06AF808
:105370000BE00F98ABB241463246009400F062FA5F
:1053800029B0BDE8F08F4FF6FF700DF1500909907C
:10539000339D484631465246012308F059FD4846A0
:1053A000002108F04FF80A9012A820902590359817
:1053B000B8F900C0ADF888508DF89900B8F904002C
:1053C000B6F900508DF89840B8F902100CEB0B04B8
:1053D000B6F904E0B8F906A0B6F902900696B6F957
:1053E0000620AC42D8BF2C460B90A0EB0B007045BA
:1053F00001EB0B06A8BF70464E45AAEB0B03D8BFC6
:105400004E469342A8BF1346002F0794ADF8404084
:105410000890ADF84400ADF84260ADF8463008465B
:10542000CDE90C914CD0BDF89C00BDF8A010ADF8B2
:105430004800BDF99E50BDF9A200ADF84C100D9981
:10544000DDF83CB085422DDC14464F4636B20FFAEB
:1054500083F90DF180081DE00E9F23983946ADF8C1
:105460004A50ADF84E500CF04BFC2398BDF99C10FF
:105470002AB23B460C9F08F0D7F98DF890005846A9
:10548000414608F0C9FF0D99BDF9A200854205F11A
:10549000010507DAB94201DDB542F5DBA245DBDAE9
:1054A0004D45D9DD14A808F0E9F90A9808F078FD0F
:1054B000099C4FF6FF71A0B2884240F0B681BAE174
:1054C000CDE904A292454FF000074FF0000A10A862
:1054D000CDE90163B8BF01274945C8BF4FF0010AB4
:1054E0006646744606F0C2FF00210395AE42C8BF6F
:1054F00001210B9AA2424FF00002B8BF01221143D2
:1055000041EA0A0131284FF0000041EA0701C8BF13
:105510000120084301218DF890100D99DDF83CA081
:105520004945814680F0010711DC87B9079820A919
:10553000ADF848000898ADF84C000D98ADF84A0059
:105540000C980138ADF84E00504608F065FFDDE9D3
:10555000041200209142B8BF0120069D384311D1AA
:1055600007980899ADF84800E888ADF84C10B8F8ED
:1055700006100130ADF84A00ADF84E1020A9504693
:1055800008F04AFF039FBE4211DCB8F800002988EA
:10559000ADF84800481EADF84C00019820A9ADF8C0
:1055A0004A000298ADF84E00504608F035FF0B98BF
:1055B000A04211DBA888B8F804100130ADF848000B
:1055C0000198ADF84C10ADF84A00029820A9ADF84A
:1055D0004E00504608F020FFBDF89C10BDF8A0001A
:1055E000B9F1000FADF8481000F0CA80079900B279
:1055F00009B201390E948142C8BF014612A8ADF824
:105600004C1006F033FFDDF814B001284FDB0446E0
:10561000B046BE4203DDDDE90C1088421EDC019875
:10562000BDF99E5007B2AF4218DD20AE2398214647
:10563000ADF84A50ADF84E500CF062FB2398BDF91E
:1056400048102AB2234608F0EFF88DF89000504633
:10565000314608F0E1FE0135AF42E7D103988045BD
:1056600002DD0498584522DB0298BDF9A21000B271
:1056700088421CDA451C20AE23982146ADF84A50DA
:10568000ADF84E500CF03CFB2398BDF948102AB2FF
:10569000234608F0C9F88DF890005046314608F0CE
:1056A000BBFEBDF9A200854205F10105E4DB0899C6
:1056B000BDF99C0009B201318142B8BF0146BDF875
:1056C000A000ADF84810ADF84C0012A806F0CEFED0
:1056D0000128C0F2A38004460E980B99814203DA98
:1056E000DDE90C1088421FDC0198BDF99E5007B21D
:1056F000AF4219DD20AE00BF23982146ADF84A50D5
:10570000ADF84E500CF0FCFA2398BDF948102AB2BF
:10571000234608F089F88DF890005046314608F08D
:105720007BFE0135AF42E7D10E980B99814202DA38
:105730000498584572DB0298BDF9A21000B2884265
:105740006CDA451C20AE00BF23982146ADF84A50C4
:10575000ADF84E500CF0D4FA2398BDF948102AB297
:10576000234608F061F88DF890005046314608F065
:1057700053FEBDF9A200854205F10105E4DB4DE0D1
:10578000B5F90210B8F90220891A5945B8BF59462F
:105790000A04012AADF84C0040DB0E9E0FFA81F995
:1057A00000240DF1800B02E001344C4536DAB8F8E4
:1057B0000200BDF99E10204407B2B8F806008F42DF
:1057C000A0EB040005B203DABDF9A2008542EBDCD0
:1057D000239831460CF094FA2398BDF948103A46C4
:1057E000334608F021F8BDF99E108DF890008F42E5
:1057F00007DB50465946ADF84A70ADF84E7008F0D8
:105800000BFEBDF9A2008542CEDC50465946ADF8EC
:105810004A50ADF84E5008F0FFFDC5E714A808F057
:105820002DF80A9808F0BCFB099C1AA808F026F885
:1058300020B208F0B5FB23980CF0A4F829B0BDE81D
:10584000F08F00002DE9F04F8FB08A46189C05902C
:1058500006A81C211F4691460CF00CFA0DA8B9F9B8
:1058600000100690ADF82070BAF90270BAF9040081
:10587000B9F9028055464E468DF83040BAF90020FD
:105880000191B9F9041035F906BF36F9064F0490B5
:10589000ADF83800A8F10100474503910292ADF838
:1058A0003420ADF83670ADF83A0003DC059806A94F
:1058B00008F0B2FD3088A34500F10100ADF83600D4
:1058C0002888ADF83A0004DB059806A908F0A4FD85
:1058D0003546BAF80000B9F80010ADF83400481E9B
:1058E00049464745C8BF51464988ADF83800ADF82C
:1058F0003610DDE9012128889142ADF83A0003DC39
:10590000059806A908F088FDB9F80400DDE903212F
:105910000130ADF83400BAF804009142ADF8380017
:1059200003DB059806A908F077FD0FB0BDE8F08FFE
:10593000F0B581B040F2BC27C2F2000739680546D5
:10594000084607F04DF929680446CE6B716B09B122
:10595000304688472068A8B1606898B13868E26826
:105960000068B0F90010B0F902004843824206D145
:1059700008E000BF38680068816A01B18847206983
:105980000028F7D10120206138680068C06881696B
:10599000C90702D08069800701D4002000E00120FF
:1059A000606167692868416979B10369D6E90021B6
:1059B00013F0300F18BF13F0040302D1FDF706FFF8
:1059C00003E00846114600F015F8206838B1616818
:1059D00029B137B92A68126912F0010201D001B069
:1059E000F0BDA268824202D0A06001B0F0BDA1600B
:1059F00001B0F0BD2DE9F04F89B040F2BC22C2F2F7
:105A0000000212680C4615682B6903F0060106298E
:105A10003AD08046C3F30110012818BF032836D1BD
:105A2000104607F0DDF80746404606F0C5FC06467E
:105A3000404606F04DFC4FF42061B1FBF6F23146D2
:105A400006468242A8BF024628690692B8F802209C
:105A500000F0300010280592079127D1B8F8000017
:105A60006988C04308440799A8F80600401A013025
:105A7000A8F80200012E23DA4FF0000ABAF1000F55
:105A800002D050460BF07EFF09B0BDE8F08F02282F
:105A9000FAD128464146224600F0BEF82846414643
:105AA0002246FDF793FE09B0BDE8F08FB8F800007C
:105AB000A8F8020008440138A8F80600012EDBDB34
:105AC0000598CDF82080C24308440138029090B276
:105AD000C1F1010301904FF0000800204FF0000BCE
